{
  "_format": "hh-sol-artifact-1",
  "contractName": "BloodSupplyContract",
  "sourceName": "contracts/BloodSupplyContract.sol",
  "abi": [
    {
      "inputs": [],
      "stateMutability": "nonpayable",
      "type": "constructor"
    },
    {
      "anonymous": false,
      "inputs": [
        {
          "indexed": false,
          "internalType": "address",
          "name": "supplierAddress",
          "type": "address"
        },
        {
          "indexed": false,
          "internalType": "uint256",
          "name": "bloodId",
          "type": "uint256"
        },
        {
          "indexed": false,
          "internalType": "address",
          "name": "hospitalAddress",
          "type": "address"
        },
        {
          "indexed": false,
          "internalType": "uint256",
          "name": "shippingTime",
          "type": "uint256"
        }
      ],
      "name": "EventBloodShipped",
      "type": "event"
    },
    {
      "anonymous": false,
      "inputs": [
        {
          "indexed": false,
          "internalType": "address",
          "name": "hospital",
          "type": "address"
        },
        {
          "indexed": false,
          "internalType": "string",
          "name": "hospitalName",
          "type": "string"
        },
        {
          "indexed": false,
          "internalType": "uint256",
          "name": "phoneNumber",
          "type": "uint256"
        },
        {
          "indexed": false,
          "internalType": "uint256",
          "name": "addedTime",
          "type": "uint256"
        }
      ],
      "name": "EventHospitalAdded",
      "type": "event"
    },
    {
      "anonymous": false,
      "inputs": [
        {
          "indexed": false,
          "internalType": "address",
          "name": "supplier",
          "type": "address"
        },
        {
          "indexed": false,
          "internalType": "string",
          "name": "organizationName",
          "type": "string"
        },
        {
          "indexed": false,
          "internalType": "uint256",
          "name": "phoneNumber",
          "type": "uint256"
        },
        {
          "indexed": false,
          "internalType": "uint256",
          "name": "addedTime",
          "type": "uint256"
        }
      ],
      "name": "EventSupplierAdded",
      "type": "event"
    },
    {
      "inputs": [
        {
          "internalType": "string",
          "name": "_donorName",
          "type": "string"
        },
        {
          "internalType": "uint256",
          "name": "_age",
          "type": "uint256"
        },
        {
          "internalType": "string",
          "name": "_gender",
          "type": "string"
        },
        {
          "internalType": "string",
          "name": "_Address",
          "type": "string"
        },
        {
          "internalType": "string",
          "name": "_bloodGroup",
          "type": "string"
        },
        {
          "internalType": "uint256",
          "name": "_bloodVolume",
          "type": "uint256"
        }
      ],
      "name": "addBlood",
      "outputs": [],
      "stateMutability": "nonpayable",
      "type": "function"
    },
    {
      "inputs": [
        {
          "internalType": "address",
          "name": "_hospitalAddress",
          "type": "address"
        },
        {
          "internalType": "string",
          "name": "_hospitalName",
          "type": "string"
        },
        {
          "internalType": "uint256",
          "name": "_phoneNumber",
          "type": "uint256"
        }
      ],
      "name": "addHospital",
      "outputs": [],
      "stateMutability": "nonpayable",
      "type": "function"
    },
    {
      "inputs": [
        {
          "internalType": "address",
          "name": "_supplierAddress",
          "type": "address"
        },
        {
          "internalType": "string",
          "name": "_supplierName",
          "type": "string"
        },
        {
          "internalType": "uint256",
          "name": "_phoneNumber",
          "type": "uint256"
        }
      ],
      "name": "addSupplier",
      "outputs": [],
      "stateMutability": "nonpayable",
      "type": "function"
    },
    {
      "inputs": [
        {
          "internalType": "uint256",
          "name": "_id",
          "type": "uint256"
        }
      ],
      "name": "getBloodStatus",
      "outputs": [
        {
          "internalType": "string",
          "name": "",
          "type": "string"
        }
      ],
      "stateMutability": "view",
      "type": "function"
    },
    {
      "inputs": [],
      "name": "getDataOfBlood",
      "outputs": [
        {
          "components": [
            {
              "internalType": "uint256",
              "name": "bloodUniqueId",
              "type": "uint256"
            },
            {
              "internalType": "string",
              "name": "bloodGroup",
              "type": "string"
            },
            {
              "internalType": "uint256",
              "name": "donatedTime",
              "type": "uint256"
            },
            {
              "internalType": "enum DataStructs.Status",
              "name": "currentStatus",
              "type": "uint8"
            }
          ],
          "internalType": "struct DataStructs.BloodDetails[]",
          "name": "",
          "type": "tuple[]"
        }
      ],
      "stateMutability": "view",
      "type": "function"
    },
    {
      "inputs": [],
      "name": "getDataOfDonors",
      "outputs": [
        {
          "components": [
            {
              "internalType": "string",
              "name": "donorName",
              "type": "string"
            },
            {
              "internalType": "uint256",
              "name": "age",
              "type": "uint256"
            },
            {
              "internalType": "string",
              "name": "gender",
              "type": "string"
            },
            {
              "internalType": "string",
              "name": "Address",
              "type": "string"
            },
            {
              "internalType": "string",
              "name": "bloodGroup",
              "type": "string"
            },
            {
              "internalType": "uint256",
              "name": "bloodVolume",
              "type": "uint256"
            },
            {
              "internalType": "uint256",
              "name": "bloodUniqueId",
              "type": "uint256"
            },
            {
              "internalType": "uint256",
              "name": "donatedTime",
              "type": "uint256"
            }
          ],
          "internalType": "struct DataStructs.Donor[]",
          "name": "",
          "type": "tuple[]"
        }
      ],
      "stateMutability": "view",
      "type": "function"
    },
    {
      "inputs": [],
      "name": "getDataOfHospitals",
      "outputs": [
        {
          "components": [
            {
              "internalType": "address",
              "name": "hospitalAddress",
              "type": "address"
            },
            {
              "internalType": "string",
              "name": "hospital_name",
              "type": "string"
            },
            {
              "internalType": "uint256",
              "name": "phoneNumber",
              "type": "uint256"
            },
            {
              "internalType": "uint256",
              "name": "addedTime",
              "type": "uint256"
            }
          ],
          "internalType": "struct DataStructs.Hospital[]",
          "name": "",
          "type": "tuple[]"
        }
      ],
      "stateMutability": "view",
      "type": "function"
    },
    {
      "inputs": [],
      "name": "getDataOfPatients",
      "outputs": [
        {
          "components": [
            {
              "internalType": "string",
              "name": "patientName",
              "type": "string"
            },
            {
              "internalType": "uint256",
              "name": "age",
              "type": "uint256"
            },
            {
              "internalType": "string",
              "name": "Address",
              "type": "string"
            },
            {
              "internalType": "string",
              "name": "bloodGroup",
              "type": "string"
            },
            {
              "internalType": "uint256",
              "name": "usedBloodId",
              "type": "uint256"
            },
            {
              "internalType": "uint256",
              "name": "usedTime",
              "type": "uint256"
            }
          ],
          "internalType": "struct DataStructs.Patient[]",
          "name": "",
          "type": "tuple[]"
        }
      ],
      "stateMutability": "view",
      "type": "function"
    },
    {
      "inputs": [],
      "name": "getDataOfSuppliers",
      "outputs": [
        {
          "components": [
            {
              "internalType": "address",
              "name": "supplierAddress",
              "type": "address"
            },
            {
              "internalType": "string",
              "name": "organizationName",
              "type": "string"
            },
            {
              "internalType": "uint256",
              "name": "phoneNumber",
              "type": "uint256"
            },
            {
              "internalType": "uint256",
              "name": "addedTime",
              "type": "uint256"
            }
          ],
          "internalType": "struct DataStructs.Supplier[]",
          "name": "",
          "type": "tuple[]"
        }
      ],
      "stateMutability": "view",
      "type": "function"
    },
    {
      "inputs": [
        {
          "internalType": "uint256",
          "name": "_blood_id",
          "type": "uint256"
        },
        {
          "internalType": "string",
          "name": "_patientName",
          "type": "string"
        },
        {
          "internalType": "uint256",
          "name": "_age",
          "type": "uint256"
        },
        {
          "internalType": "string",
          "name": "_address",
          "type": "string"
        },
        {
          "internalType": "string",
          "name": "_bloodGroup",
          "type": "string"
        }
      ],
      "name": "giveBloodToPatients",
      "outputs": [],
      "stateMutability": "nonpayable",
      "type": "function"
    },
    {
      "inputs": [
        {
          "internalType": "uint256",
          "name": "",
          "type": "uint256"
        }
      ],
      "name": "hospitals",
      "outputs": [
        {
          "internalType": "address",
          "name": "",
          "type": "address"
        }
      ],
      "stateMutability": "view",
      "type": "function"
    },
    {
      "inputs": [],
      "name": "owner",
      "outputs": [
        {
          "internalType": "address",
          "name": "",
          "type": "address"
        }
      ],
      "stateMutability": "view",
      "type": "function"
    },
    {
      "inputs": [
        {
          "internalType": "uint256",
          "name": "_blood_id",
          "type": "uint256"
        },
        {
          "internalType": "address",
          "name": "_hospitalAddress",
          "type": "address"
        }
      ],
      "name": "shipBloodToHospital",
      "outputs": [],
      "stateMutability": "nonpayable",
      "type": "function"
    },
    {
      "inputs": [
        {
          "internalType": "uint256",
          "name": "",
          "type": "uint256"
        }
      ],
      "name": "suppliers",
      "outputs": [
        {
          "internalType": "address",
          "name": "",
          "type": "address"
        }
      ],
      "stateMutability": "view",
      "type": "function"
    }
  ],
  "bytecode": "0x608060405234801561001057600080fd5b50336000806101000a81548173ffffffffffffffffffffffffffffffffffffffff021916908373ffffffffffffffffffffffffffffffffffffffff160217905550613129806100606000396000f3fe608060405234801561001057600080fd5b50600436106100ea5760003560e01c8063bbf299581161008c578063cea2312111610066578063cea2312114610237578063db4ebc6114610267578063e8c6e98f14610285578063f976fd2c146102a1576100ea565b8063bbf29958146101cb578063c4d1a28c146101fb578063ce1a6cab14610219576100ea565b806381dc6fd2116100c857806381dc6fd2146101455780638da5cb5b146101755780639a8243c114610193578063b8527cfd146101af576100ea565b80630651ba5c146100ef5780632c9fe87b1461010b5780636baba7e214610129575b600080fd5b61010960048036038101906101049190611f62565b6102bf565b005b610113610524565b60405161012091906121fb565b60405180910390f35b610143600480360381019061013e919061221d565b6106e6565b005b61015f600480360381019061015a919061231a565b6108a9565b60405161016c9190612356565b60405180910390f35b61017d6108e8565b60405161018a9190612356565b60405180910390f35b6101ad60048036038101906101a89190611f62565b61090c565b005b6101c960048036038101906101c49190612371565b610b71565b005b6101e560048036038101906101e0919061231a565b610d11565b6040516101f2919061248a565b60405180910390f35b610203610ef0565b60405161021091906125e0565b60405180910390f35b6102216110cf565b60405161022e9190612789565b60405180910390f35b610251600480360381019061024c919061231a565b61150b565b60405161025e9190612356565b60405180910390f35b61026f61154a565b60405161027c9190612904565b60405180910390f35b61029f600480360381019061029a9190612926565b6118c8565b005b6102a9611a64565b6040516102b69190612a8b565b60405180910390f35b3360008054906101000a900473ffffffffffffffffffffffffffffffffffffffff1673ffffffffffffffffffffffffffffffffffffffff168173ffffffffffffffffffffffffffffffffffffffff161461034e576040517f08c379a000000000000000000000000000000000000000000000000000000000815260040161034590612af9565b60405180910390fd5b60405180608001604052808573ffffffffffffffffffffffffffffffffffffffff1681526020018481526020018381526020014281525060076000600154815260200190815260200160002060008201518160000160006101000a81548173ffffffffffffffffffffffffffffffffffffffff021916908373ffffffffffffffffffffffffffffffffffffffff16021790555060208201518160010190816103f69190612d25565b5060408201518160020155606082015181600301559050506001600c60008673ffffffffffffffffffffffffffffffffffffffff1673ffffffffffffffffffffffffffffffffffffffff16815260200190815260200160002060006101000a81548160ff0219169083151502179055506003849080600181540180825580915050600190039060005260206000200160009091909190916101000a81548173ffffffffffffffffffffffffffffffffffffffff021916908373ffffffffffffffffffffffffffffffffffffffff160217905550600160008154809291906104dc90612e26565b91905055507faf5569555a5501c2fe458d01733f3a371409eddb75352016d7b5cd77c800006c848484426040516105169493929190612e7d565b60405180910390a150505050565b6060600060065467ffffffffffffffff81111561054457610543611e01565b5b60405190808252806020026020018201604052801561057d57816020015b61056a611c43565b8152602001906001900390816105625790505b50905060005b6006548110156106de5760006040518060800160405280600960008581526020019081526020016000206006015481526020016009600085815260200190815260200160002060040180546105d790612b48565b80601f016020809104026020016040519081016040528092919081815260200182805461060390612b48565b80156106505780601f1061062557610100808354040283529160200191610650565b820191906000526020600020905b81548152906001019060200180831161063357829003601f168201915b5050505050815260200160096000858152602001908152602001600020600701548152602001600b600085815260200190815260200160002060030160009054906101000a900460ff1660038111156106ac576106ab61208b565b5b8152509050808383815181106106c5576106c4612ec9565b5b6020026020010181905250508080600101915050610583565b508091505090565b33600c60008273ffffffffffffffffffffffffffffffffffffffff1673ffffffffffffffffffffffffffffffffffffffff16815260200190815260200160002060009054906101000a900460ff16610773576040517f08c379a000000000000000000000000000000000000000000000000000000000815260040161076a90612f6a565b60405180910390fd5b60405180610100016040528088815260200187815260200186815260200185815260200184815260200183815260200160065481526020014281525060096000600654815260200190815260200160002060008201518160000190816107d99190612d25565b506020820151816001015560408201518160020190816107f99190612d25565b50606082015181600301908161080f9190612d25565b5060808201518160040190816108259190612d25565b5060a0820151816005015560c0820151816006015560e082015181600701559050506001600b6000600654815260200190815260200160002060030160006101000a81548160ff021916908360038111156108835761088261208b565b5b02179055506006600081548092919061089b90612e26565b919050555050505050505050565b600481815481106108b957600080fd5b906000526020600020016000915054906101000a900473ffffffffffffffffffffffffffffffffffffffff1681565b60008054906101000a900473ffffffffffffffffffffffffffffffffffffffff1681565b3360008054906101000a900473ffffffffffffffffffffffffffffffffffffffff1673ffffffffffffffffffffffffffffffffffffffff168173ffffffffffffffffffffffffffffffffffffffff161461099b576040517f08c379a000000000000000000000000000000000000000000000000000000000815260040161099290612af9565b60405180910390fd5b60405180608001604052808573ffffffffffffffffffffffffffffffffffffffff1681526020018481526020018381526020014281525060086000600254815260200190815260200160002060008201518160000160006101000a81548173ffffffffffffffffffffffffffffffffffffffff021916908373ffffffffffffffffffffffffffffffffffffffff1602179055506020820151816001019081610a439190612d25565b5060408201518160020155606082015181600301559050506001600d60008673ffffffffffffffffffffffffffffffffffffffff1673ffffffffffffffffffffffffffffffffffffffff16815260200190815260200160002060006101000a81548160ff0219169083151502179055506004849080600181540180825580915050600190039060005260206000200160009091909190916101000a81548173ffffffffffffffffffffffffffffffffffffffff021916908373ffffffffffffffffffffffffffffffffffffffff16021790555060026000815480929190610b2990612e26565b91905055507f4fcd0bfa215e8ae284e0888e150c587b2dad10354f86110eb2ae62a26f0b689084848442604051610b639493929190612e7d565b60405180910390a150505050565b33600d60008273ffffffffffffffffffffffffffffffffffffffff1673ffffffffffffffffffffffffffffffffffffffff16815260200190815260200160002060009054906101000a900460ff16610bfe576040517f08c379a0000000000000000000000000000000000000000000000000000000008152600401610bf590612ffc565b60405180910390fd5b6040518060c0016040528086815260200185815260200184815260200183815260200187815260200142815250600a60008881526020019081526020016000206000820151816000019081610c539190612d25565b50602082015181600101556040820151816002019081610c739190612d25565b506060820151816003019081610c899190612d25565b506080820151816004015560a0820151816005015590505060058690806001815401808255809150506001900390600052602060002001600090919091909150556003600b600088815260200190815260200160002060030160006101000a81548160ff02191690836003811115610d0457610d0361208b565b5b0217905550505050505050565b606060016003811115610d2757610d2661208b565b5b600b600084815260200190815260200160002060030160009054906101000a900460ff166003811115610d5d57610d5c61208b565b5b14610eb25760026003811115610d7657610d7561208b565b5b600b600084815260200190815260200160002060030160009054906101000a900460ff166003811115610dac57610dab61208b565b5b14610e7657600380811115610dc457610dc361208b565b5b600b600084815260200190815260200160002060030160009054906101000a900460ff166003811115610dfa57610df961208b565b5b14610e3a576040518060400160405280601a81526020017f4e6f207265636f7264206f66207468617420426c6f6f645f6964000000000000815250610e71565b6040518060400160405280600981526020017f46756c66696c6c656400000000000000000000000000000000000000000000008152505b610ead565b6040518060400160405280600781526020017f53686970706564000000000000000000000000000000000000000000000000008152505b610ee9565b6040518060400160405280600681526020017f41637469766500000000000000000000000000000000000000000000000000008152505b9050919050565b6060600060038054905067ffffffffffffffff811115610f1357610f12611e01565b5b604051908082528060200260200182016040528015610f4c57816020015b610f39611c7d565b815260200190600190039081610f315790505b50905060005b6003805490508110156110c757600060405180608001604052806007600085815260200190815260200160002060000160009054906101000a900473ffffffffffffffffffffffffffffffffffffffff1673ffffffffffffffffffffffffffffffffffffffff168152602001600760008581526020019081526020016000206001018054610fdf90612b48565b80601f016020809104026020016040519081016040528092919081815260200182805461100b90612b48565b80156110585780601f1061102d57610100808354040283529160200191611058565b820191906000526020600020905b81548152906001019060200180831161103b57829003601f168201915b505050505081526020016007600085815260200190815260200160002060020154815260200160076000858152602001908152602001600020600301548152509050808383815181106110ae576110ad612ec9565b5b6020026020010181905250508080600101915050610f52565b508091505090565b60603360008054906101000a900473ffffffffffffffffffffffffffffffffffffffff1673ffffffffffffffffffffffffffffffffffffffff168173ffffffffffffffffffffffffffffffffffffffff1614611160576040517f08c379a000000000000000000000000000000000000000000000000000000000815260040161115790612af9565b60405180910390fd5b600060065467ffffffffffffffff81111561117e5761117d611e01565b5b6040519080825280602002602001820160405280156111b757816020015b6111a4611cbb565b81526020019060019003908161119c5790505b50905060005b6006548110156115025760006040518061010001604052806009600085815260200190815260200160002060000180546111f690612b48565b80601f016020809104026020016040519081016040528092919081815260200182805461122290612b48565b801561126f5780601f106112445761010080835404028352916020019161126f565b820191906000526020600020905b81548152906001019060200180831161125257829003601f168201915b50505050508152602001600960008581526020019081526020016000206001015481526020016009600085815260200190815260200160002060020180546112b690612b48565b80601f01602080910402602001604051908101604052809291908181526020018280546112e290612b48565b801561132f5780601f106113045761010080835404028352916020019161132f565b820191906000526020600020905b81548152906001019060200180831161131257829003601f168201915b5050505050815260200160096000858152602001908152602001600020600301805461135a90612b48565b80601f016020809104026020016040519081016040528092919081815260200182805461138690612b48565b80156113d35780601f106113a8576101008083540402835291602001916113d3565b820191906000526020600020905b8154815290600101906020018083116113b657829003601f168201915b505050505081526020016009600085815260200190815260200160002060040180546113fe90612b48565b80601f016020809104026020016040519081016040528092919081815260200182805461142a90612b48565b80156114775780601f1061144c57610100808354040283529160200191611477565b820191906000526020600020905b81548152906001019060200180831161145a57829003601f168201915b50505050508152602001600960008581526020019081526020016000206005015481526020016009600085815260200190815260200160002060060154815260200160096000858152602001908152602001600020600701548152509050808383815181106114e9576114e8612ec9565b5b60200260200101819052505080806001019150506111bd565b50809250505090565b6003818154811061151b57600080fd5b906000526020600020016000915054906101000a900473ffffffffffffffffffffffffffffffffffffffff1681565b60603360008054906101000a900473ffffffffffffffffffffffffffffffffffffffff1673ffffffffffffffffffffffffffffffffffffffff168173ffffffffffffffffffffffffffffffffffffffff16146115db576040517f08c379a00000000000000000000000000000000000000000000000000000000081526004016115d290612af9565b60405180910390fd5b600060065467ffffffffffffffff8111156115f9576115f8611e01565b5b60405190808252806020026020018201604052801561163257816020015b61161f611d00565b8152602001906001900390816116175790505b50905060005b6005805490508110156118bf5760006040518060c00160405280600a6000858152602001908152602001600020600001805461167390612b48565b80601f016020809104026020016040519081016040528092919081815260200182805461169f90612b48565b80156116ec5780601f106116c1576101008083540402835291602001916116ec565b820191906000526020600020905b8154815290600101906020018083116116cf57829003601f168201915b50505050508152602001600a6000858152602001908152602001600020600101548152602001600a6000858152602001908152602001600020600201805461173390612b48565b80601f016020809104026020016040519081016040528092919081815260200182805461175f90612b48565b80156117ac5780601f10611781576101008083540402835291602001916117ac565b820191906000526020600020905b81548152906001019060200180831161178f57829003601f168201915b50505050508152602001600a600085815260200190815260200160002060030180546117d790612b48565b80601f016020809104026020016040519081016040528092919081815260200182805461180390612b48565b80156118505780601f1061182557610100808354040283529160200191611850565b820191906000526020600020905b81548152906001019060200180831161183357829003601f168201915b50505050508152602001600a6000858152602001908152602001600020600401548152602001600a6000858152602001908152602001600020600501548152509050808383815181106118a6576118a5612ec9565b5b6020026020010181905250508080600101915050611638565b50809250505090565b33600c60008273ffffffffffffffffffffffffffffffffffffffff1673ffffffffffffffffffffffffffffffffffffffff16815260200190815260200160002060009054906101000a900460ff16611955576040517f08c379a000000000000000000000000000000000000000000000000000000000815260040161194c90612f6a565b60405180910390fd5b81600d60008273ffffffffffffffffffffffffffffffffffffffff1673ffffffffffffffffffffffffffffffffffffffff16815260200190815260200160002060009054906101000a900460ff166119e2576040517f08c379a00000000000000000000000000000000000000000000000000000000081526004016119d99061308e565b60405180910390fd5b6002600b600086815260200190815260200160002060030160006101000a81548160ff02191690836003811115611a1c57611a1b61208b565b5b02179055507f4d59f0468c9ec07c27687d37e38bd6bbf22254a5e0f1cca63c550b9b1b620d7a33858542604051611a5694939291906130ae565b60405180910390a150505050565b6060600060048054905067ffffffffffffffff811115611a8757611a86611e01565b5b604051908082528060200260200182016040528015611ac057816020015b611aad611d36565b815260200190600190039081611aa55790505b50905060005b600480549050811015611c3b57600060405180608001604052806008600085815260200190815260200160002060000160009054906101000a900473ffffffffffffffffffffffffffffffffffffffff1673ffffffffffffffffffffffffffffffffffffffff168152602001600860008581526020019081526020016000206001018054611b5390612b48565b80601f0160208091040260200160405190810160405280929190818152602001828054611b7f90612b48565b8015611bcc5780601f10611ba157610100808354040283529160200191611bcc565b820191906000526020600020905b815481529060010190602001808311611baf57829003601f168201915b50505050508152602001600860008581526020019081526020016000206002015481526020016008600085815260200190815260200160002060030154815250905080838381518110611c2257611c21612ec9565b5b6020026020010181905250508080600101915050611ac6565b508091505090565b604051806080016040528060008152602001606081526020016000815260200160006003811115611c7757611c7661208b565b5b81525090565b6040518060800160405280600073ffffffffffffffffffffffffffffffffffffffff1681526020016060815260200160008152602001600081525090565b60405180610100016040528060608152602001600081526020016060815260200160608152602001606081526020016000815260200160008152602001600081525090565b6040518060c001604052806060815260200160008152602001606081526020016060815260200160008152602001600081525090565b6040518060800160405280600073ffffffffffffffffffffffffffffffffffffffff1681526020016060815260200160008152602001600081525090565b6000604051905090565b600080fd5b600080fd5b600073ffffffffffffffffffffffffffffffffffffffff82169050919050565b6000611db382611d88565b9050919050565b611dc381611da8565b8114611dce57600080fd5b50565b600081359050611de081611dba565b92915050565b600080fd5b600080fd5b6000601f19601f8301169050919050565b7f4e487b7100000000000000000000000000000000000000000000000000000000600052604160045260246000fd5b611e3982611df0565b810181811067ffffffffffffffff82111715611e5857611e57611e01565b5b80604052505050565b6000611e6b611d74565b9050611e778282611e30565b919050565b600067ffffffffffffffff821115611e9757611e96611e01565b5b611ea082611df0565b9050602081019050919050565b82818337600083830152505050565b6000611ecf611eca84611e7c565b611e61565b905082815260208101848484011115611eeb57611eea611deb565b5b611ef6848285611ead565b509392505050565b600082601f830112611f1357611f12611de6565b5b8135611f23848260208601611ebc565b91505092915050565b6000819050919050565b611f3f81611f2c565b8114611f4a57600080fd5b50565b600081359050611f5c81611f36565b92915050565b600080600060608486031215611f7b57611f7a611d7e565b5b6000611f8986828701611dd1565b935050602084013567ffffffffffffffff811115611faa57611fa9611d83565b5b611fb686828701611efe565b9250506040611fc786828701611f4d565b9150509250925092565b600081519050919050565b600082825260208201905092915050565b6000819050602082019050919050565b61200681611f2c565b82525050565b600081519050919050565b600082825260208201905092915050565b60005b8381101561204657808201518184015260208101905061202b565b60008484015250505050565b600061205d8261200c565b6120678185612017565b9350612077818560208601612028565b61208081611df0565b840191505092915050565b7f4e487b7100000000000000000000000000000000000000000000000000000000600052602160045260246000fd5b600481106120cb576120ca61208b565b5b50565b60008190506120dc826120ba565b919050565b60006120ec826120ce565b9050919050565b6120fc816120e1565b82525050565b600060808301600083015161211a6000860182611ffd565b50602083015184820360208601526121328282612052565b91505060408301516121476040860182611ffd565b50606083015161215a60608601826120f3565b508091505092915050565b60006121718383612102565b905092915050565b6000602082019050919050565b600061219182611fd1565b61219b8185611fdc565b9350836020820285016121ad85611fed565b8060005b858110156121e957848403895281516121ca8582612165565b94506121d583612179565b925060208a019950506001810190506121b1565b50829750879550505050505092915050565b600060208201905081810360008301526122158184612186565b905092915050565b60008060008060008060c0878903121561223a57612239611d7e565b5b600087013567ffffffffffffffff81111561225857612257611d83565b5b61226489828a01611efe565b965050602061227589828a01611f4d565b955050604087013567ffffffffffffffff81111561229657612295611d83565b5b6122a289828a01611efe565b945050606087013567ffffffffffffffff8111156122c3576122c2611d83565b5b6122cf89828a01611efe565b935050608087013567ffffffffffffffff8111156122f0576122ef611d83565b5b6122fc89828a01611efe565b92505060a061230d89828a01611f4d565b9150509295509295509295565b6000602082840312156123305761232f611d7e565b5b600061233e84828501611f4d565b91505092915050565b61235081611da8565b82525050565b600060208201905061236b6000830184612347565b92915050565b600080600080600060a0868803121561238d5761238c611d7e565b5b600061239b88828901611f4d565b955050602086013567ffffffffffffffff8111156123bc576123bb611d83565b5b6123c888828901611efe565b94505060406123d988828901611f4d565b935050606086013567ffffffffffffffff8111156123fa576123f9611d83565b5b61240688828901611efe565b925050608086013567ffffffffffffffff81111561242757612426611d83565b5b61243388828901611efe565b9150509295509295909350565b600082825260208201905092915050565b600061245c8261200c565b6124668185612440565b9350612476818560208601612028565b61247f81611df0565b840191505092915050565b600060208201905081810360008301526124a48184612451565b905092915050565b600081519050919050565b600082825260208201905092915050565b6000819050602082019050919050565b6124e181611da8565b82525050565b60006080830160008301516124ff60008601826124d8565b50602083015184820360208601526125178282612052565b915050604083015161252c6040860182611ffd565b50606083015161253f6060860182611ffd565b508091505092915050565b600061255683836124e7565b905092915050565b6000602082019050919050565b6000612576826124ac565b61258081856124b7565b935083602082028501612592856124c8565b8060005b858110156125ce57848403895281516125af858261254a565b94506125ba8361255e565b925060208a01995050600181019050612596565b50829750879550505050505092915050565b600060208201905081810360008301526125fa818461256b565b905092915050565b600081519050919050565b600082825260208201905092915050565b6000819050602082019050919050565b600061010083016000830151848203600086015261264c8282612052565b91505060208301516126616020860182611ffd565b50604083015184820360408601526126798282612052565b915050606083015184820360608601526126938282612052565b915050608083015184820360808601526126ad8282612052565b91505060a08301516126c260a0860182611ffd565b5060c08301516126d560c0860182611ffd565b5060e08301516126e860e0860182611ffd565b508091505092915050565b60006126ff838361262e565b905092915050565b6000602082019050919050565b600061271f82612602565b612729818561260d565b93508360208202850161273b8561261e565b8060005b85811015612777578484038952815161275885826126f3565b945061276383612707565b925060208a0199505060018101905061273f565b50829750879550505050505092915050565b600060208201905081810360008301526127a38184612714565b905092915050565b600081519050919050565b600082825260208201905092915050565b6000819050602082019050919050565b600060c08301600083015184820360008601526127f48282612052565b91505060208301516128096020860182611ffd565b50604083015184820360408601526128218282612052565b9150506060830151848203606086015261283b8282612052565b91505060808301516128506080860182611ffd565b5060a083015161286360a0860182611ffd565b508091505092915050565b600061287a83836127d7565b905092915050565b6000602082019050919050565b600061289a826127ab565b6128a481856127b6565b9350836020820285016128b6856127c7565b8060005b858110156128f257848403895281516128d3858261286e565b94506128de83612882565b925060208a019950506001810190506128ba565b50829750879550505050505092915050565b6000602082019050818103600083015261291e818461288f565b905092915050565b6000806040838503121561293d5761293c611d7e565b5b600061294b85828601611f4d565b925050602061295c85828601611dd1565b9150509250929050565b600081519050919050565b600082825260208201905092915050565b6000819050602082019050919050565b60006080830160008301516129aa60008601826124d8565b50602083015184820360208601526129c28282612052565b91505060408301516129d76040860182611ffd565b5060608301516129ea6060860182611ffd565b508091505092915050565b6000612a018383612992565b905092915050565b6000602082019050919050565b6000612a2182612966565b612a2b8185612971565b935083602082028501612a3d85612982565b8060005b85811015612a795784840389528151612a5a85826129f5565b9450612a6583612a09565b925060208a01995050600181019050612a41565b50829750879550505050505092915050565b60006020820190508181036000830152612aa58184612a16565b905092915050565b7f796f7520617265206e6f742061204f776e657220212100000000000000000000600082015250565b6000612ae3601683612440565b9150612aee82612aad565b602082019050919050565b60006020820190508181036000830152612b1281612ad6565b9050919050565b7f4e487b7100000000000000000000000000000000000000000000000000000000600052602260045260246000fd5b60006002820490506001821680612b6057607f821691505b602082108103612b7357612b72612b19565b5b50919050565b60008190508160005260206000209050919050565b60006020601f8301049050919050565b600082821b905092915050565b600060088302612bdb7fffffffffffffffffffffffffffffffffffffffffffffffffffffffffffffffff82612b9e565b612be58683612b9e565b95508019841693508086168417925050509392505050565b6000819050919050565b6000612c22612c1d612c1884611f2c565b612bfd565b611f2c565b9050919050565b6000819050919050565b612c3c83612c07565b612c50612c4882612c29565b848454612bab565b825550505050565b600090565b612c65612c58565b612c70818484612c33565b505050565b5b81811015612c9457612c89600082612c5d565b600181019050612c76565b5050565b601f821115612cd957612caa81612b79565b612cb384612b8e565b81016020851015612cc2578190505b612cd6612cce85612b8e565b830182612c75565b50505b505050565b600082821c905092915050565b6000612cfc60001984600802612cde565b1980831691505092915050565b6000612d158383612ceb565b9150826002028217905092915050565b612d2e8261200c565b67ffffffffffffffff811115612d4757612d46611e01565b5b612d518254612b48565b612d5c828285612c98565b600060209050601f831160018114612d8f5760008415612d7d578287015190505b612d878582612d09565b865550612def565b601f198416612d9d86612b79565b60005b82811015612dc557848901518255600182019150602085019450602081019050612da0565b86831015612de25784890151612dde601f891682612ceb565b8355505b6001600288020188555050505b505050505050565b7f4e487b7100000000000000000000000000000000000000000000000000000000600052601160045260246000fd5b6000612e3182611f2c565b91507fffffffffffffffffffffffffffffffffffffffffffffffffffffffffffffffff8203612e6357612e62612df7565b5b600182019050919050565b612e7781611f2c565b82525050565b6000608082019050612e926000830187612347565b8181036020830152612ea48186612451565b9050612eb36040830185612e6e565b612ec06060830184612e6e565b95945050505050565b7f4e487b7100000000000000000000000000000000000000000000000000000000600052603260045260246000fd5b7f596f7520617265206e6f74206120417574686f72697a656420537570706c696560008201527f7220212100000000000000000000000000000000000000000000000000000000602082015250565b6000612f54602483612440565b9150612f5f82612ef8565b604082019050919050565b60006020820190508181036000830152612f8381612f47565b9050919050565b7f596f7520617265206e6f74206120417574686f72697a656420486f737069746160008201527f6c20212100000000000000000000000000000000000000000000000000000000602082015250565b6000612fe6602483612440565b9150612ff182612f8a565b604082019050919050565b6000602082019050818103600083015261301581612fd9565b9050919050565b7f4e6f207065726d6973696f6e20746f205368697020426c6f6f6420486572652060008201527f2121000000000000000000000000000000000000000000000000000000000000602082015250565b6000613078602283612440565b91506130838261301c565b604082019050919050565b600060208201905081810360008301526130a78161306b565b9050919050565b60006080820190506130c36000830187612347565b6130d06020830186612e6e565b6130dd6040830185612347565b6130ea6060830184612e6e565b9594505050505056fea2646970667358221220a8b4a3a77c6a853df93169c94f37f9d86026e2dd95ad2c80096aefe0d3e85cd964736f6c63430008180033",
  "linkReferences": {},
  "deployedLinkReferences": {}
}